:020000040800F2
:10000000D0070020490100081F190008E91700085F
:100010001D190008F7030008CD1D000800000000AE
:10002000000000000000000000000000391A000875
:10003000F903000800000000211900083B1A00081D
:100040006301000863010008630100086301000800
:1000500063010008630100086301000863010008F0
:1000600063010008630100086301000863010008E0
:1000700063010008630100086301000863010008D0
:1000800063010008630100086301000863010008C0
:1000900063010008630100086301000863010008B0
:1000A00063010008630100086301000863010008A0
:1000B000A11A000863010008630100086301000839
:1000C0006301000863010008630100086301000880
:1000D00063010008C11D00086301000863010008F6
:1000E0006301000863010008630100086301000860
:1000F0006301000863010008630100086301000850
:10010000630100086301000863010008630100083F
:10011000630100086301000863010008630100082F
:10012000630100086301000863010008630100081F
:10013000DFF810D000F0DCF800480047E12D00089F
:10014000AFF30080D00700200648804706480047EC
:10015000FEE7FEE7FEE7FEE7FEE7FEE7FEE7FEE777
:10016000FEE7FEE79D1A000831010008202A04DBA3
:10017000203A21FA02F00021704721FA02F3D04020
:10018000C2F120029140084319467047D2B201E003
:1001900000F8012B491EFBD270470022F6E710B58C
:1001A00013460A4604461946FFF7F0FF204610BDE5
:1001B00010B5044604E00B7800F8013B03B1491C7C
:1001C000521EF8D2204610BDCAB2401E10F8011FC0
:1001D0008A4202D00029F9D100207047421C10F851
:1001E000011B0029FBD1801A704730B5044600205E
:1001F000034600E05B1C934203D2E05CCD5C401BF5
:10020000F8D030BD70B5064601F006FE046805461C
:100210000A220021304600F033F82C6070BD2DE931
:10022000F05F0546002092469B468846064681467A
:1002300040241BE02846414647462246FFF796FFEA
:1002400053465A46C01A914110D3114618462246C9
:1002500000F060F82D1A67EB01084F462246012096
:10026000002100F057F817EB00094E41201EA4F1C1
:100270000104DFDC484631462A464346BDE8F09F8C
:100280002DE9F04791460F4680460446002614F8B3
:10029000015B2DB100F04EF80068405DC007F6D15B
:1002A0002B2D02D02D2D18D0641E4A4639462046EB
:1002B00000F044F827B13968A14201D1C7F80080A5
:1002C00071054FF002040BD54042002803DD01F018
:1002D000A3FD0460A007BDE8F08746F48066E4E76C
:1002E0000028F8DA01F098FD04606FF00040F2E7B2
:1002F000064C074D06E0E06840F0010394E8070073
:1003000098471034AC42F6D3FFF716FF14300008BC
:1003100034300008202A04DB203A00FA02F10020E1
:1003200070479140C2F1200320FA03F31943904033
:100330007047000000487047802F00082DE9F05FEB
:1003400082460078002715468B460AF10104B9461B
:10035000302801D09DB113E014F8010B0127782853
:1003600003D0582801D045B10AE00DB1102D07D1B6
:100370000027102514F8010B02E0082500E00A25EB
:100380000026B0460EE005FB080005FB06F101273C
:1003900001EB10461FFA80F8B6F5803F00D3B9464E
:1003A00014F8010B294600F018F80028EBDABBF12D
:1003B000000F05D00FB1641E00E05446CBF800409A
:1003C000B9F1000F06D001F027FD02210160C81E1F
:1003D000BDE8F09F48EA0640FAE73A2800D23038F4
:1003E00020F02002412A01D3A2F13700884201D334
:1003F0004FF0FF307047FEE7704700002DE9F05FD7
:1004000090F821100024022903D0042181630124E3
:1004100085E001680A6822F00E020A6001680A6835
:1004200022F001020A603F4E3E4FB215DFF8F4C0E1
:10043000DFF8F090DFF8ECA0DFF8E8B0DFF8E4E0F8
:100440000168783F13011502ACF1640CA9F1500961
:10045000AAF13C0AABF1280BAEF1140E4FF4801850
:10046000B14227D9B9420ED0614512D049451DD0BD
:10047000514518D0594518D0714501D1424615E073
:10048000294EB14201D1012210E0274E1436B1426B
:1004900001D110220AE0244E2836B14206D0224A69
:1004A0003C32914201D11A4600E02A461E49091FFA
:1004B0000A602BE0B94213D0614517D0494522D0DC
:1004C00051451DD059451DD0714501D142461AE014
:1004D000B14202D14FF0807215E0134EB14201D10A
:1004E000012210E0104E1436B14201D110220AE070
:1004F0000D4E2836B14206D00B4A3C32914201D112
:100500001A4600E02A46074980394A60012180F8EE
:100510002110002180F82010416B01B1884720464E
:10052000BDE8F09F800002400804024070B5044618
:1005300000F010F90546601C02D00448007804441D
:1005400000F008F9401BA042FAD370BD240000203F
:100550002DE9F84FDFF8C891002409F1040A0AF1E7
:10056000040B23460F270BF1040ED1E00125A54013
:1005700006EA0502AA4276D1DFF8A8C14E68A6EBCA
:100580000C0866452BD00DDC032E34D005DC36B3C9
:10059000012E19D0022E2FD11BE0112E16D0122EB3
:1005A0002AD119E0B8F5881F19D006DCB8F5803FCC
:1005B00015D0B8F5801F1FD111E0B8F5001F0ED07F
:1005C000B8F5041F18D10AE0CB6815E0CB681B1DF5
:1005D00012E0CB6808330FE0CB680C330CE08B687B
:1005E0002BB1012B4FF0080303D0456104E0042335
:1005F00002E0056100E00023FF2A01D8064601E081
:1006000000F104064FEA840501D9A5F12005D6F8CA
:10061000008007FA05FC28EA0C0803FA05F548EA09
:100620000508C6F800804D68ED0070D53E4DAE69F6
:1006300046F00106AE61AD6924F0030605F0010540
:1006400000953A4D06EB050CDCF80850A607360F6E
:1006500007FA06F825EA0805DFF8D480404503D1FB
:100660004FF0000825E052E0DFF8C880404502D195
:100670004FF001081DE0DFF8C080404502D14FF087
:10068000020816E0DFF8B480404502D14FF00308BD
:100690000FE0DFF8AC80404502D14FF0040808E0DD
:1006A000DFF8A080404502D14FF0050801E04FF08F
:1006B000060808FA06F848EA0508CCF808804D68EC
:1006C000D9F80060ED034D4601D5164300E096438E
:1006D0002E604D68DAF80060AD03554601D516432B
:1006E00000E096432E604D68DBF80060ED025D4649
:1006F00001D5164300E096432E604D68DEF8006099
:10070000AD02754601D5164300E096432E60641C89
:100710000A681646E2407FF429AFBDE8F88F000072
:1007200000040140000011100010024000000140D0
:1007300000080140000C014000100140001401407D
:1007400000180140001C01400AB101617047090412
:10075000FBE700000148806870470000240000208B
:1007600002488168027811448160704724000020AB
:10077000074810B5016841F010010160032000F046
:1007800075F8002000F006F800F024F8002010BDF5
:100790000020024070B50D4D04464FF47A71287860
:1007A000B1FBF0F00A490968B1FBF0F000F06FFC12
:1007B00048B9102C07D200222146501E00F036F80E
:1007C00000206C6070BD012070BD0000240000207E
:1007D000300000200C4808B5816941F001018161B9
:1007E000816901F001010091C16941F08051C1614D
:1007F000C06900F0805000900448416821F0E06139
:1008000041F00071416008BD00100240000001404D
:10081000002809DB00F01F020121914040098000FF
:1008200000F1E020C0F8001170470000F0B40E4B5A
:100830001B680C46C3F30223C3F10705042D00D93E
:100840000425191D072901D2002300E0DB1E012623
:1008500006FA05F1491E214099409E40761E164039
:100860003143F0BC01F0C8BA0CED00E0064900F0DD
:10087000070208684FF6FF03184040EA0220034AC7
:1008800010430860704700000CED00E00000FA051E
:100890002DE9F0470F46050061D0434E306800F067
:1008A0000700B84209D2306820F0070038433060B2
:1008B000306800F00700B84251D128683B4C8107EE
:1008C00012D5400703D5606840F4E0606060287886
:1008D000000703D5606840F4605060606068A968F4
:1008E00020F0F000084360602878C00728D06868CE
:1008F000012810D02168022810D0890700292EDA9B
:10090000616821F0030101436160FFF723FF804626
:1009100041F288390DE021688903EFE78901EDE7AD
:10092000FFF718FFA0EB0801494502D90320BDE8F5
:10093000F0876068696800F00C00B0EB810FEFD1C0
:10094000306800F00700B8420BD9306820F007008B
:1009500038433060306800F00700B84201D0012011
:10096000E5E72878400705D56068E96820F4E0608D
:10097000084360602878000706D56068296920F47C
:10098000605040EAC100606000F038F86168084AD1
:10099000C1F30311515CC84006490860064800686D
:1009A000FFF7F8FE0020C2E70020024000100240DE
:1009B000E42E0008300000202800002004480549EB
:1009C00000684968044AC1F30221515CC84070477D
:1009D0003000002000100240F42E000804480549B1
:1009E00000684968044AC1F3C221515CC84070479D
:1009F0003000002000100240F42E000812A185B043
:100A00000FC98DE80F0014A0144A006804905168C3
:100A1000134801F00C03042B10D0082B0ED1C1F3A6
:100A20008343C9031DF803000AD5516804AAC1F322
:100A30004041515C0A4A5043B0FBF1F005B07047A9
:100A400008494843FAE700000203040506070809BD
:100A50000A0B0C0D0E0F10100102000000100240D6
:100A600000127A0000093D002DE9F84F040070D013
:100A70002078C04DC00749D06868C0F381000128C4
:100A800007D06868C0F38100022809D16868C003F4
:100A900006D52868800339D560680028E7D035E09E
:100AA0006068B0F5803F0BD010B1B0F5A02F11D029
:100AB000286820F480302860286820F4802002E034
:100AC000286840F480302860606890B1FFF742FEEB
:100AD00006460AE0286840F480202860F0E700BF5E
:100AE000FFF738FE801B642873D828688003F7D589
:100AF0000CE0FFF72FFE064605E000BFFFF72AFED9
:100B0000801B6428F0D828688003F7D420789A4E98
:100B100080074FF001094FF0000839D5686810F0E0
:100B20000C0F07D06868C0F38100022809D16868FB
:100B3000C00306D42868800714D52069012808D18D
:100B400010E02069B0B1C6F80090FFF703FE074639
:100B500005E00AE1FFF7FEFDC01B0228C4D82868A3
:100B60008007F7D52868616920F0F80040EAC100E5
:100B700028600DE0C6F80080FFF7ECFD074604E0B2
:100B8000FFF7E8FDC01B022823D828688007F7D4A8
:100B9000207800072CD57948A169D9B1C0F8009018
:100BA000FFF7D8FD074604E0FFF7D4FDC01B02287D
:100BB0000FD8686A8007F7D571484FF4FA5100687A
:100BC000B0FBF1F0009000BF0098411E0091FAD2F6
:100BD0000EE080E0C0F80080FFF7BCFD074604E0AF
:100BE000FFF7B8FDC01B022875D8686A8007F7D4E4
:100BF0002078400760D5E8690027C00008D4E8697C
:100C000040F08050E861E869012700F080500090D2
:100C10005C480168C90513D40168834641F48071BA
:100C20000160FFF797FD824606E000BFFFF792FDE7
:100C3000A0EB0A0064284ED8DBF80000C005F5D50B
:100C4000E06801280AD008B1052813D0286A20F0EE
:100C500001002862286A20F0040002E0286A40F0BF
:100C600001002862E06841F2883B98B1FFF772FD0D
:100C700082460BE0286A40F004002862EEE700BFDD
:100C8000FFF768FDA0EB0A0159455AD8286A80078A
:100C9000F6D50CE0FFF75EFD824605E0FFF75AFD52
:100CA000A0EB0A0159454CD8286A8007F6D41FB139
:100CB000E86920F08050E861E06988B36968C1F3B1
:100CC0008101022944D00228C6F8608004D0FFF7D1
:100CD00041FD044638E034E0FFF73CFD074604E000
:100CE000FFF738FDC01B02282BD828688001F7D4F5
:100CF000206AB0F5803F05D16868A16820F4003013
:100D000008436860D4E908010843696821F4741154
:100D100008436860C6F86090FFF71CFD044606E0D3
:100D200025E000BFFFF716FD001B022809D8286840
:100D30008001F7D51BE000BFFFF70CFD001B022868
:100D400002D90320BDE8F88F28688001F4D40EE0B2
:100D50000128F7D06868226A00F48031914204D1FA
:100D6000616A00F47010884201D00120EAE7002097
:100D7000E8E70000001002400000424280044242C6
:100D8000300000200070004070B5040009D0606A97
:100D9000002540B125616561A56294F8510040B11C
:100DA0000CE0012070BD6068B0F5827FF4D0E56191
:100DB000F2E784F85050204600F040F8022084F812
:100DC00051002068016821F040010160A08821895C
:100DD00000F4827001F404410843A18901F4006128
:100DE0000843217C01F002010843217D01F001014B
:100DF0000843218B01F400710843217F01F0380181
:100E0000084394F8201001F080010843218D01F47B
:100E10000051084321680860A069042101EA1040DC
:100E2000216848602068C16921F40061C16165657D
:100E3000012084F85100002070BD000030B585B05D
:100E40000024009401940294039400681449884299
:100E500023D11448816941F480518161816901F491
:100E600080510491816941F00401816180690E4DD6
:100E700000F004000490A0200090022001900320C4
:100E8000039069462846FFF763FB4020CDE9000444
:100E9000694628460294FFF75BFB05B030BD0000B1
:100EA0000030014000100240000801402DE9F84FD9
:100EB000044690F8500000270A9E1D4692468B4635
:100EC0004FF0010901280ED0012084F85000FFF7EF
:100ED00041FC804694F85100616801280CD0B1F5BE
:100EE000827F07D102E00220BDE8F88FA16809B92E
:100EF000042801D00227C2E0BBF1000F27D0BAF1CD
:100F0000000F24D01DB394F85100042802D005200E
:100F100084F8510000206065C4F838A0E587A587F3
:100F2000C4F830B0E586A586206460642068016856
:100F3000490603D4016841F040010160E068B0F562
:100F4000006F606805D0E8B3012D46D07FE001272F
:100F500095E008B1012D39D1206B21680088C86067
:100F6000206B801C2063E08E401EE0862EE020680F
:100F7000816889070FD5E18E69B1B9F1010F0AD1F6
:100F8000216B0988C160206B801C2063E08E401EAD
:100F9000E0864FF0000920688168C9070CD0E18F16
:100FA00051B1C068A16B0880A06B801CA063E08F6A
:100FB000401EE0874FF00109FFF7CCFBA0EB0800D3
:100FC000B04200E009E001D3701C50D1E08E00284F
:100FD000CDD1E08F0028CAD13FE0206B2168007896
:100FE0000873206B401C2063E08E401EE0862EE0DC
:100FF0002068816889070FD5E18E69B1B9F1010FC9
:101000000AD1216B09780173206B401C2063E08EAC
:10101000401EE0864FF0000920688168C9070CD0A7
:10102000E18F51B1C068A16B0870A06B401CA06338
:10103000E08F401EE0874FF00109FFF78BFBA0EB2C
:101040000800B04202D3701C01D010E07EB1E08EE7
:101050000028CDD1E08F0028CAD142463146204633
:1010600000F05FFC28B101272020606507E003271E
:1010700005E0A06818B92068C16880680090012068
:1010800084F85100002084F8500038462CE710B551
:10109000401EB0F1807F01D3012010BD4FF0E0244D
:1010A00060610F21601700F0A7FE0020A0610720FB
:1010B0002061002010BD70477047000070B590F8A7
:1010C0003C20012A2CD0012480F83C40022280F8E8
:1010D0003D2003685A689D6822F070060A68324312
:1010E0005A60104B02689A420ED00F4B9A420BD0B6
:1010F000B2F1804F08D00D4B9A4205D00C4B9A426A
:1011000002D00C4B9A4204D1496825F08003194360
:10111000916080F83D40002180F83C10084670BD89
:10112000022070BD002C014000340140000400404A
:1011300000080040000C004010B5040003D094F8F3
:101140003D0010B107E0012010BD002084F83C00F4
:10115000204600F01FF8022084F83D00211D206881
:1011600000F0A4FC012084F8460084F83E0084F8D6
:101170003F0084F8400084F8410084F8420084F87D
:10118000430084F8440084F8450084F83D000020C2
:1011900010BD000008B50068B0F1804F12D10A48B8
:1011A000C16941F00101C161C069002200F0010084
:1011B000009011461C20FFF739FBBDE808401C20B9
:1011C000FFF726BB08BD00000010024090F83D105C
:1011D000012901D001207047022180F83D100168EB
:1011E000CA6842F00102CA6000680E4988420ED007
:1011F0000D4988420BD0B0F1804F08D00B4988428E
:1012000005D00B49884202D00A49884204D181683E
:1012100001F00701062903D0016841F001010160D6
:1012200000207047002C01400034014000040040C1
:1012300000080040000C004070B5044690F83C00E7
:10124000012817D0012584F83C50022084F83D0085
:101250002068826822F0770222F47F428260086868
:10126000502830D00DDC20284DD005DC98B3102854
:101270003BD148E0022070BD302844D0402834D112
:1012800039E0602828D0702806D0B0F5805F2CD0D7
:10129000B0F5005F29D10AE0CB68D1E901212068CF
:1012A00000F04AFC2068816841F0770109E0CB68D2
:1012B000D1E90121206800F03FFC2068816841F4F9
:1012C0008041816011E0CA684968206800F04EFCE6
:1012D0005021206807E016E0CA684968206800F0DD
:1012E00056FC6021206800F031FC84F83D5000205D
:1012F00084F83C0070BDCA684968206800F036FC7C
:1013000040212068EFE7226801461046EBE770476E
:1013100070B50446006801694FF00005C9438907AC
:1013200015D4C168C943890711D4E91E01610120A0
:101330002077206880698007204602D0FFF7E7FF0A
:1013400004E000F098F8204600F096F82577206831
:101350000169C943490717D4C168C943490713D470
:101360006FF004010161022020772068806910F489
:10137000407F204602D0FFF7CAFF04E000F07BF870
:10138000204600F079F8257720680169C9430907EC
:1013900016D4C168C943090712D46FF0080101616E
:1013A000042020772068C0698007204602D0FFF71C
:1013B000AEFF04E000F05FF8204600F05DF825770E
:1013C00020680169C943C90617D4C168C943C90661
:1013D00013D46FF010010161082020772068C069E4
:1013E00010F4407F204602D0FFF791FF04E000F0A8
:1013F00042F8204600F040F8257720680169C9438B
:10140000C90708D1C168C943C90704D1891E016150
:10141000204600F033F820680169C943090609D461
:10142000C168C943090605D46FF0800101612046F7
:10143000FFF741FE20680169C943490609D4C16824
:10144000C943490605D46FF040010161204600F010
:101450001DF820680169C94389060BD4C168C943D6
:10146000890607D46FF0200101612046BDE8704075
:10147000FFF722BE70BD70477047000002498842E6
:1014800001D100F06BBB70473403002070477047F8
:1014900070B5026804461068D168536910F00F0FE8
:1014A00052D003F0010501F490762E435FD0C207BD
:1014B00005D0CA0503D5E26B42F00102E2634207A0
:1014C00005D5DA0703D0E26B42F00202E26382073D
:1014D00005D5DA0703D0E26B42F00402E2630207AB
:1014E00007D501F020022A4303D0E26B42F0080244
:1014F000E263E26B002A33D0800604D5880602D569
:10150000204600F089FB20684069E16BC0F3801041
:10151000090700D428B3204600F070FB2068416919
:1015200049061AD5416921F040014161606BA0B1C3
:101530002D494163606BFEF761FF002810D0606B9E
:10154000416BBDE870400847830610D58B060ED569
:101550002046BDE8704000F05FBB2046FFF797FFD4
:1015600070BD2046FFF793FF0020E06370BD0306C7
:101570002BD50B0629D594F839002128F6D1A0687F
:10158000B0F5805F01D12069B0B1206A411C2162B1
:10159000216800784860E08C401E0004000CE08464
:1015A000E4D12068C16821F08001C1602068C16871
:1015B00041F04001C16070BD206A0088C0F308009E
:1015C0005060206A801C2062E5E74006F3D548069B
:1015D000F1D5D168204621F04001D160202184F866
:1015E000391000F000F970BDED1B000870B5040063
:1015F00004D094F83900002510B106E0012070BD38
:1016000084F83850204600F023F8242084F839006C
:101610002068C16821F40051C160204600F042FBFF
:101620002068016921F4904101612068416921F03D
:101630002A0141612068C16841F40051C160E5633D
:10164000202084F8390084F83A00002070BD0000A2
:1016500030B585B00024009401940294039400688E
:10166000184988422CD11848816941F48041816130
:10167000816901F480410491816941F00401816133
:101680008069124D00F0040004904FF40070009047
:10169000022001900320039069462846FEF758FF78
:1016A0002815CDE90004694628460294FEF750FF4C
:1016B000002211462520FFF7B9F82520FFF7A8F8EA
:1016C00005B030BD00380140001002400008014064
:1016D00090F83A30202B22D1F9B1F2B190F838309D
:1016E000012B1CD081628285C2850021C163222228
:1016F00080F83A2080F838100168CA6842F4807295
:10170000CA6001684A6942F001024A610068C16822
:1017100041F02001C1600020704701207047022085
:10172000704700000249884201D100F043BA704777
:101730007C0300202DE9F843044690F839001F4649
:1017400016460D4620284CD1C5B1BEB194F83800DC
:10175000012846D0012084F838004FF00008C4F872
:101760003C80212084F83900FEF7F4FFA6848146EE
:10177000E684A068B0F5805F03D004E00120BDE8F6
:10178000F883206928B12E465FF0000584F8388080
:101790000EE00026FAE78021204600F0DFFAA0B92B
:1017A000AEB116F8010B21684860E08C401EE08461
:1017B000E08C4B464FF0000200970028EBD14FF031
:1017C0004001204600F0CAFA30B10320D7E735F8CF
:1017D000020BC0F30800E6E7202084F8390000205F
:1017E000CDE70220CBE77047FEE7000070B586B07A
:1017F00000241D480094019402940394816941F0EF
:1018000010018161816901F010010491816941F049
:1018100020018161816901F020010491816941F019
:10182000040181618069114E00F0040004900022DF
:1018300042F210013046FEF787FF01257014CDE912
:10184000000569463046CDE90245FEF781FE1020CD
:10185000CDE900050220CDE9024069463046FEF799
:1018600077FE06B070BD000000100240001001407D
:101870000F4810B50D4901604FF48271416000219D
:101880008160C1604FF400720161C0E90512082255
:10189000C0E90721416281620A21C162FFF774FA3F
:1018A000002801D072B6FEE710BD000000300140F4
:1018B000DC02002010B586B0002417480094019483
:1018C0000294039404944FF080410594016049F61A
:1018D0003F41C0E901144FF47A71C0E903148461F7
:1018E000FFF72AFC08B172B6FEE74FF48050009073
:1018F00069460948FFF7A0FC08B172B6FEE7202050
:10190000CDE9040404A90448FFF7D8FB002801D05E
:1019100072B6FEE706B010BD34030020FEE7FEE716
:10192000704738B50B46009204460022802100F033
:101930000BF8002804D0606D40F0200060650320A3
:1019400038BDFF2000F05CB82DE9F8431E469146F3
:1019500088460446089DFEF7FDFE401B351AFEF73B
:10196000F9FE074625480068C0F3CB30684338E0ED
:10197000701C37D0FEF7EEFEC01BA84203D215B193
:10198000009860B32CE02068416821F0E0014160DC
:101990006068B0F5827F0BD1A068B0F5004F02D02F
:1019A000B0F5806F04D12068016821F0400101602A
:1019B000A06AB0F5005F09D12068016821F40051E8
:1019C00001602068016841F400510160012084F841
:1019D0005100002084F850000320BDE8F883002562
:1019E000401E00902068816838EA010004D0002180
:1019F0004945BDD10020F0E70121F9E73000002082
:101A000001B582B000208DF804004FF480500090A2
:101A1000012301AA02A90648FFF748FA20B10122D2
:101A200051030448FEF790FE9DF804000EBD00002F
:101A3000DC020020001001407047FEF791BE30B577
:101A40008FB028216846FEF7A8FB14210AA8FEF7EC
:101A5000A4FB01210804CDE9001000240294022512
:101A60000491CDE907504FF4402009906846FEF7F5
:101A7000FBFF08B172B6FEE70F20CDE90A054FF46F
:101A80008060CDE90C4001210AA80E94FEF700FF0A
:101A9000002801D072B6FEE70FB030BD70470000DD
:101AA0000148FFF735BC000034030020F0B50268A0
:101AB0001C4B1D4D1D4E1E4F1E4C4FF0804C98422E
:101AC00009D0A04207D0604505D0A84203D0B0425B
:101AD00001D0B84204D122F0700E4A6842EA0E02E8
:101AE000984209D0A04207D0604505D0A84203D053
:101AF000B04201D0B84203D122F44075CA682A43EB
:101B00004D6922F080022A4302608A68C2620A6834
:101B10008262984201D0A04201D10969016301218A
:101B20004161F0BD002C014000040040000800406D
:101B3000000C00400034014010B5846842EA0322E2
:101B400024F47F440A432243826010BD826822F05D
:101B500070020A4342F00701816070470248416801
:101B6000491C4160704700000000002010B5036A66
:101B7000046A24F001040462846924F0F00444EA55
:101B8000021423F00A020A438461026210BD10B5F8
:101B9000036A23F0100303628369046A23F4704329
:101BA00043EA023224F0A00343EA01118261016298
:101BB00010BD00000A4801780A48027D142A01D9A4
:101BC000002104E0612908D08154017D491C017580
:101BD000012203490448FFF77BBD01214175F7E766
:101BE000BC030020740200207C03002010B5406A72
:101BF0000021C185C184FFF74AFC10BD0168CA6895
:101C000022F49072CA6001684A6922F001024A61B6
:101C1000202180F83A10704710B590F83A10222928
:101C200001D0022010BD82684FF480539A4201D146
:101C3000016921B1816A9A421BD04AB10AE0026867
:101C4000816A5268C2F308020A80816A891C08E02E
:101C5000026972B10268526802F07F020A70816AFA
:101C6000491C8162C18D491E0904090CC18503D03C
:101C700016E002685268F1E70168CA6822F02002A3
:101C8000CA600168CA6822F48072CA6001684A6941
:101C900022F001024A61202180F83A10FFF742FD4C
:101CA000002010BD70B5044600680169E26821F4A7
:101CB0004051114301612169A068084361690843EB
:101CC0002168CA6841F20C639A430243CA602068E3
:101CD0004169A26921F44071114341611E492068A4
:101CE000884202D1FEF77AFE01E0FEF767FE00EBC4
:101CF000C00101EB0012606864218000B2FBF0F3C8
:101D0000B3FBF1F36FF018067343B2FBF0F5B2FBCF
:101D1000F0F605EB8305322303EB0515B5FBF1F572
:101D2000B6FBF1F605F0F00505EB0615B2FBF0F693
:101D3000B2FBF0F0B0FBF1F06FF01802504306EB8D
:101D4000800003EB0010B0FBF1F0216800F00F0001
:101D50002844886070BD0000003801402DE9F04142
:101D6000984617460E460446069D1DE0681C1BD08B
:101D70002DB1FEF7EFFCA0EB0800A84214D92068B3
:101D8000C16821F4D071C1602068416921F001016E
:101D90004161202084F8390084F83A00002084F85A
:101DA00038000320BDE8F0812068006836EA0000B2
:101DB00004D00020B842D9D00020F3E70120F9E791
:101DC0000148FFF765BB00007C030020FEE7000030
:101DD0000FB4084B10B504A902AA039800F030F81C
:101DE000044602A9002000F056FA204610BC5DF817
:101DF00014FB0000972200080907090E002804DBE5
:101E000000F1E02080F80014704700F00F0000F1AE
:101E1000E02080F8141D704700487047340000200F
:101E200002E008C8121F08C1002AFAD170477047A3
:101E3000002001E001C1121F002AFBD17047000001
:101E40002DE9FF4F8DB00F460546002606E02528F8
:101E50000BD0DDE90F1290476D1C761C2878002806
:101E6000F5D111B03046BDE8F08F0024A246A1465E
:101E70000122E94900E0044315F8013F203B02FA42
:101E800003F00842F7D128782A2810D06FF02F02EB
:101E90002878A0F13001092914D80AEB8A0102EB55
:101EA000410144F0020400EB010A6D1CF0E701CF90
:101EB0005FEA000A03D544F40054CAF1000A44F072
:101EC00002046D1C28782E2817D115F8010F44F054
:101ED00004042A280ED06FF02F022878A0F13001D8
:101EE00009290AD809EB890102EB410100EB01093C
:101EF0006D1CF2E757F8049B6D1C28786C280FD0F6
:101F000006DC4C2817D068280DD06A2814D104E0CC
:101F1000742810D07A280FD10DE044F400140AE0A0
:101F200044F4801401E044F440146978814202D101
:101F300004F580146D1C6D1C28786E281ED00CDCF6
:101F4000632830D004DC00288BD0582811D19FE0C2
:101F5000642867D069280CD164E073282DD004DC94
:101F60006F2872D0702804D194E075286ED078283C
:101F70006DD0DDE90F129047761C4BE1C4F302509F
:101F8000022806D0032809D0042801CF09D0066012
:101F900040E101CFF117C0E900613BE101CF0680CC
:101FA00038E1067036E117F8040B8DF800000020C8
:101FB0008DF80100EB46012003E057F804BB4FF019
:101FC000FF3061074FF0000102D40DE008F101017C
:101FD000884649450FDA8045F8DB1BF808100029D0
:101FE000F4D108E008F1010188468142FADB1BF8D0
:101FF00008100029F6D1DDE90F23AAEB080081467D
:10200000214600F031F9304400EB080604E0DDE938
:102010000F121BF8010B9047B8F10108F7D22146C7
:102020004846F2E00A21C4F302524FF0000B089137
:10203000022A04D001CFC117032A09D00AE0FF1DEC
:1020400027F00707F7E8020108E02CE01EE01FE098
:1020500000B2C117042A01D140B2C117021E71F1AA
:10206000000206DA0023D0EB030063EB01012D220E
:1020700002E0220504D52B228DF82420012203E062
:10208000E20701D02022F7E7904653E00A210BE057
:10209000102109E010214FF0000B44F004044FF030
:1020A0000809089103E008214FF0000B0891C4F3E0
:1020B0000252022A04D001CF0021032A06D006E0F2
:1020C000FF1D27F00707F7E8020103E080B2042AAA
:1020D00000D1C0B24FF0000822072BD52A78702A11
:1020E00007D0DDF820C08CF0100C5CEA0B0C05D09A
:1020F0000EE040228DF82420012208E050EA01037E
:1021000006D030238DF824308DF825200222904609
:10211000089B83F0080353EA0B030BD150EA01023A
:1021200001D1620706D530228DF824204FF0010836
:10213000A9F101092A78582A04D038A20B9208AADA
:102140000A920BE03AA2F9E75B46089AFEF767F8B5
:102150000B9B9B5C0A9A521E0A92137050EA010272
:10216000F2D10A98ADEB000000F1200B600702D518
:1021700024F4803401E04FF00109D94502DDA9EBD8
:102180000B0000E0002000EB0B0141440890AAEB9B
:10219000010AE00306D4DDE90F232146504600F092
:1021A00063F806444FF0000908E009A911F8090096
:1021B000DDE90F12904709F10109761CC145F4DBF6
:1021C000E0030CD5DDE90F232146504600F04CF822
:1021D000064404E0DDE90F1230209047761C089990
:1021E000481E08900029F5DC08E00A980A99007852
:1021F000491C0A91DDE90F129047761CBBF10001E2
:10220000ABF1010BF1DC21465046DDE90F2300F074
:1022100019F806446D1C21E60928010030313233DB
:102220003435363738396162636465660000000012
:1022300030313233343536373839414243444546FC
:10224000000000002DE9F041044600251E46174617
:10225000880404D405E039462020B0476D1C641E74
:10226000F9D52846BDE8F0812DE9F0410446002566
:102270001E469046C80301D5302700E02027880479
:1022800004D505E041463846B0476D1C641EF9D5BB
:102290002846BDE8F0810A68531C0B601070704737
:1022A0002DE9FF41002500F10E041C2964D320888C
:1022B0004FF48077B8425FD160880828FBD10422B0
:1022C0005A4904F11800FDF790FF0028F3D1E08887
:1022D0003E01B84251D1A07A637B227BE17A8DE83E
:1022E0000F00637A227A52A15E48FFF771FD5D48C4
:1022F000FDF774FF82B233465A495B48FFF71AFA7A
:10230000617C207CCDE90001E37BA27B57A155488D
:10231000FFF75EFD5348FDF761FF82B23346514936
:102320005148FFF707FA207DE37DA27D617D8DE8AE
:102330000F00E37CA27C53A14A48FFF749FD4948BE
:10234000FDF74CFF82B2334646494748FFF7F2F9A2
:10235000E17EA07ECDE90001637E227E54A141484A
:10236000FFF736FD3F48FDF739FF82B233463D495E
:102370003D48FFF7DFF9012553E0B0F5007F50D16C
:10238000A07A637B227BE17A8DE80F00637A227A60
:102390004DA13448FFF71CFD3248FDF71FFF82B204
:1023A000334630493048FFF7C5F9617C207CCDE9E0
:1023B0000001E37BA27B2DA12A48FFF709FD2948F4
:1023C000FDF70CFF82B2334626492748FFF7B2F9E2
:1023D000207DE37DA27D617D8DE80F00E37CA27C02
:1023E00046A12048FFF7F4FC1E48FDF7F7FE82B235
:1023F00033461C491C48FFF79DF9E17EA07ECDE9DC
:102400000001637E227E2AA11648FFF7E1FC1548F1
:10241000FDF7E4FE82B2334612491348FFF78AF90A
:10242000022504B02846BDE8F0810000000000202D
:10243000726571756573740D0A6D61635F737263A4
:1024400020253032583A253032583A253032583A21
:10245000253032583A253032583A253032580D0A54
:1024600000000000380000207C03002069705F73CA
:1024700072632025642E25642E25642E25640D0AA2
:10248000000000006E6D61635F647374202530325C
:10249000583A253032583A253032583A2530325899
:1024A0003A253032583A253032580D0A00000000E3
:1024B00069705F6473742025642E25642E25642E54
:1024C00025640D0A000000000D0A7265706C790D1C
:1024D0000A6D61635F73726320253032583A25308C
:1024E00032583A253032583A253032583A2530326F
:1024F000583A253032580D0A000000006D61635FC4
:1025000064737420253032583A253032583A2530D9
:1025100032583A253032583A253032583A2530323E
:10252000580D0A002DE9F0430024424E424D89B077
:1025300081464AF6C007A04605EB04103268C16820
:10254000511AB94209D905EB0422C2F80080C2F839
:102550000480C2F80880C2F80C8004224946FDF7C6
:1025600044FEC8B3641CE4B2052CE5D333484FF4F1
:1025700080720823C2810382062383740423C374F8
:102580002F4B828200F10E011A68C0F816209A883B
:1025900042832C4A1268C1F80E202B4AD2F8074019
:1025A000C1F81240B2F80B40CC82D9F800408C61DF
:1025B00052F8011F0160918881801968C0F80610E7
:1025C000998841814FF4C16181812A2100F0ECF9A1
:1025D000012009B0BDE8F083FFE700244FF48056E6
:1025E00005EB04100DF11408C179437A027AC7682B
:1025F00088E88E00C1780DF1040887794379027963
:1026000088E88E0081780091437802780FA11C48F9
:10261000FFF7DEFB1A48FDF7E1FD82B233461849A9
:102620001848FFF787F8641CE4B2052CD8D30020C3
:10263000CFE70000040000208C020020740000207E
:1026400010000020000000201600002025642E2528
:10265000642E25642E2564202D20253032583A25FD
:102660003032583A253032583A253032583A2530EF
:1026700032583A25303258202D20256C750D0A002D
:10268000380000207C0300204FF400728282D0F8D2
:1026900016200262428B8284074A1C211368C0F80C
:1026A000163092884283C269C0F82620034A126815
:1026B000C26100F0D9BA0000100000200000002024
:1026C000F0B5234A214D89B01178C46905EB011397
:1026D00004291C60D0F816405C60408B18811D48AE
:1026E0000068D86002D2491C117001E0002010700F
:1026F00000244FF4805600BF05EB04100DF1140CBC
:10270000C179437A027AC7688CE88E00C1780DF1EE
:10271000040C8779437902798CE88E0081780091E6
:10272000437802780CA11948FFF752FB1748FDF7D0
:1027300055FD82B2334615491548FEF7FBFF641C70
:10274000E4B2052CD8D309B0F0BD00008C02002003
:10275000160000200400002025642E25642E256428
:102760002E2564202D20253032583A253032583A13
:10277000253032583A253032583A253032583A25E9
:10278000303258202D20256C750D0A0038000020AD
:102790007C030020002205E030F8023B891E5BBA72
:1027A0001A4489B20129F7D831B1007802EB00222E
:1027B00002E090B200EB1242100CFAD150BAC043C2
:1027C00080B2704770B50A4D00F0600428788442EA
:1027D0000CD003221F21A02000F084F962092C7084
:1027E000BDE870401F21802000F07CB970BD000062
:1027F0000800002038B50122474D540321462846E1
:10280000FDF7A2FF002221462846FDF79DFFFF228B
:102810000021104600F066F90220FDF787FE1D2119
:10282000002000F017F90028F9D00021082000F05E
:1028300085F900210C2000F081F940F6FF310A20D3
:1028400000F07CF94FF44061042000F077F941F288
:10285000FF11062000F072F9382000F01DF940F059
:102860000101382000F077F90D21C02000F073F944
:102870000021C12000F06FF93222C221802000F037
:1028800031F940F61241C62000F058F91221C42057
:1028900000F061F940F2DC51CA2000F04FF91F4C02
:1028A000E420217800F057F96178E52000F053F931
:1028B000A178E22000F04FF9E178E32000F04BF935
:1028C0002179E02000F047F96179E12000F043F937
:1028D0004FF48071102000F021F940F2764114206D
:1028E00000F01CF91F20FFF76DFF04221F2180203C
:1028F00000F0F8F80221752000F02DF90848094988
:102900000068B0FBF1F0C0EB00100090411E009198
:1029100001D30846FAE738BD00100140100000203E
:1029200030000020404B4C002DE9FC4107460E468C
:102930000024392000F0B0F880B31A4DA88881B285
:10294000002000F0FBF86946062000F065F8BDF8AD
:1029500000006860BDF80200001F84B2B44200D9D4
:102960003446BDF80400000601D4002403E03946D3
:10297000204600F051F8002038556868401EB0F538
:10298000406F02DB40F6FF3100E081B20C2000F026
:10299000D5F840221E21802000F0A4F82046BDE892
:1029A000FC8100000800002070B50C4605460EE0D2
:1029B0001C2000F071F8800709D580221F211046E5
:1029C00000F090F880221F21A02000F08BF81F213A
:1029D000002000F03FF80007EAD44FF440610220E5
:1029E00000F0ACF804F5406081B2062000F0A6F8D3
:1029F00008A1012000F05AF82946204600F056F8B8
:102A000008221F21802000F06DF8BDE870400120F1
:102A1000FDF78CBD7830300070B50D4E0C46054684
:102A2000002210213046FDF78FFE3A20FEF7E8FF26
:102A300004E00020FEF7E4FF04F8010B6D1EADB2C8
:102A4000F7D23046BDE8704001221021FDF77CBE70
:102A50000010014070B50F4E0C46054600221021B3
:102A60003046FDF771FE04F01F002843FEF7C8FF53
:102A70000020FEF7C5FF200602D5FF20FEF7C0FFAD
:102A8000FEF75FFF0446012210213046FDF75CFE91
:102A9000204670BD0010014010B50446FFF792FEBD
:102AA0002146BDE810400020FFF7D4BF70B50C4EA2
:102AB0000C460546002210213046FDF745FE7A20DF
:102AC00002E000BF14F8010BFEF79AFF6D1EADB2D5
:102AD000F8D23046BDE8704001221021FDF734BE27
:102AE000001001402DE9F0410B4E14460D460746FB
:102AF000002210213046FDF727FE05F01F00384365
:102B0000FEF77EFF2046FEF77BFF3046BDE8F04132
:102B100001221021FDF718BE0010014010B50C462F
:102B20000146D42000F017F82146D62000F006F820
:102B3000EA20FFF7B1FFC007FAD110BD70B50D460E
:102B40000446C9B200F007F8290A641CE0B2BDE8E7
:102B50007040AFF3008070B50C460546FFF732FEBB
:102B600022462946BDE870404020FFF7BBBF000069
:102B700070B58CB00D4604460E296AD3A0894FF477
:102B80008056B0F5C16F2CD0082862D161792079C8
:102B9000E27808AB079283E82300E07A0DF10C0C91
:102BA000A378627821788CE80F00207AA27A617A83
:102BB0008DE80700E379A27927492848FFF708F94B
:102BC0002648FDF70BFB82B2334624492448FEF722
:102BD000B1FD143D0CB0A9B22046BDE8704000F034
:102BE000C1B860792179E278CDE908100A95079299
:102BF000E07A0DF10C0CA378627821788CE80F0054
:102C0000207AA27A617A8DE80700E379A2791549E2
:102C10001248FFF7DDF81148FDF7E0FA82B23346BB
:102C20000E490F48FEF786FD0E3DA9B22046FFF77C
:102C300037FB012807D002280BD10CB02046BDE895
:102C40007040FFF73DBD0CB02046BDE87040FFF777
:102C50001BBD0CB070BD0000842F000838000020A0
:102C60007C030020CC2F0008D0F8062002604289A7
:102C70008280054A0E3189B21368C0F80630928806
:102C80004281FFF791BE0000100000202DE9F041C5
:102C900000270E46054600F1220408291DD320789E
:102CA00008281AD10EA11248FFF792F81048FDF734
:102CB00095FA82B24FF480530D490E48FEF73AFD63
:102CC00000202070608031462046FFF763FD608061
:102CD0001436B1B2284600F063F83846BDE8F081FA
:102CE00069636D7020726571756573740D0A0000FB
:102CF000380000207C0300202DE9FC5F0646002000
:102D000090460F4600904FF02E0B04468146EA464F
:102D1000019059463046FDF757FA801B401CC5B25A
:102D20002A4631466846FDF743FA0AF80590684698
:102D3000FDF768FA08F80400781B641CE4B22E441E
:102D4000C7B2032CE5D33A4631466846FDF730FA60
:102D50000AF807906846FDF755FA88F80300BDE8C1
:102D6000FC9F000070B5054600F10E04807B002634
:102D7000452810D10422094904F11000FDF735FA65
:102D800048B9608840BA143881B2607A012802D10B
:102D90002846FFF77BFF304670BD00000000002092
:102DA0002DE9F041054600F10E0448BA6080002785
:102DB000E780802020726781E068206107480E4626
:102DC00014210068E0602046FFF7E4FC6081314692
:102DD0002846FFF749FF3846BDE8F0810000002093
:102DE000FDF7C6FCFEF72BFEFEF700FDFEF740FDEB
:102DF000134812490C2201604FF4613141600021F7
:102E00008160C160C0E904128161C161FEF7EEFB1F
:102E100008B172B6FEE7FEF74DFD00F013F8084961
:102E2000012240310648FEF753FC05484838FEF7BA
:102E3000CDF900BF00F022F8FCE7000000380140A7
:102E40007C030020084810B5002101700175417510
:102E50004FF48053082205A10748FEF76BFCBDE83C
:102E60001040FFF7C7BC0000740200203132333439
:102E70003536726E000000007C030020F8B5002596
:102E8000144C4FF40076009502E02046FFF770FEE8
:102E900031461048FFF748FD0100F6D10E4C607D29
:102EA000012816D10603227D334621460B48FEF742
:102EB00041FC334602220AA10848FEF73BFC217D73
:102EC0006A462046FFF718FF6846FFF72BFB65753B
:102ED0002575F8BD74000020740200207C030020DA
:102EE0000D0A0000000000000000000001020304C1
:102EF00006070809000000000102030400404040EA
:102F000040404040404041414141414040404040BC
:102F10004040404040404040404040404005020268
:102F20000202020202020202020202020220202027
:102F30002020202020202002020202020202909083
:102F40009090909010101010101010101010101081
:102F500010101010101010100202020202028888D5
:102F600088888888080808080808080808080808E1
:102F700008080808080808080202020240000000C9
:102F8000FD2E0008253032583A253032583A253087
:102F900032583A253032583A253032583A253032B4
:102FA000582D253032583A253032583A253032588B
:102FB0003A253032583A253032583A253032583B8B
:102FC0002025643B2069700D0A000000253032582E
:102FD0003A253032583A253032583A253032583A6C
:102FE000253032583A253032582D253032583A257E
:102FF0003032583A253032583A253032583A253056
:1030000032583A253032583B2025643B206172709B
:103010000D0A0000343000080000002038000000D5
:10302000201E00086C3000083800002098070000BF
:10303000301E0008C0A8E95B00000000000000008E
:1030400000000000001542BFF05100FFFFFFFFFF2E
:10305000FF00000000000000010000001000000060
:0C306000000000000024F400000000004C
:0400000508000131BD
:00000001FF
