:020000040800F2
:10000000F80600204901000807130008391200080B
:10001000051300087F0200086916000800000000B0
:100020000000000000000000000000002114000893
:1000300081020008000000000913000823140008D2
:100040006301000863010008630100086301000800
:1000500063010008630100086301000863010008F0
:1000600063010008630100086301000863010008E0
:1000700063010008630100086301000863010008D0
:1000800063010008630100086301000863010008C0
:1000900063010008630100086301000863010008B0
:1000A00063010008630100086301000863010008A0
:1000B0006301000863010008630100086301000890
:1000C0006301000863010008630100086301000880
:1000D000630100085D160008630100086301000861
:1000E0006301000863010008630100086301000860
:1000F0006301000863010008630100086301000850
:10010000630100086301000863010008630100083F
:10011000630100086301000863010008630100082F
:10012000630100086301000863010008630100081F
:10013000DFF810D000F082F800480047C122000824
:10014000AFF30080F80600200648804706480047C5
:10015000FEE7FEE7FEE7FEE7FEE7FEE7FEE7FEE777
:10016000FEE7FEE78514000831010008202A04DBC1
:10017000203A21FA02F00021704721FA02F3D04020
:10018000C2F120029140084319467047D2B201E003
:1001900000F8012B491EFBD270470022F6E710B58C
:1001A00013460A4604461946FFF7F0FF204610BDE5
:1001B000421C10F8011B0029FBD1801A704730B592
:1001C00004460020034600E05B1C934203D2E05C3F
:1001D000CD5C401BF8D030BD2DE9F05F0546002016
:1001E00092469B4688460646814640241BE02846A8
:1001F000414647462246FFF7B9FF53465A46C01AC2
:10020000914110D311461846224600F029F82D1AC4
:1002100067EB01084F4622460120002100F020F83C
:1002200017EB00094E41201EA4F10104DFDC484613
:1002300031462A464346BDE8F09F0000064C074D74
:1002400006E0E06840F0010394E8070098471034A6
:10025000AC42F6D3FFF770FFDC230008FC23000854
:10026000202A04DB203A00FA02F100207047914076
:10027000C2F1200320FA03F3194390407047FEE7D0
:10028000704700002DE9F05F90F82110002402294A
:1002900003D004218163012485E001680A6822F00B
:1002A0000E020A6001680A6822F001020A603F4EED
:1002B0003E4FB215DFF8F4C0DFF8F090DFF8ECA0A5
:1002C000DFF8E8B0DFF8E4E00168783F13011502D9
:1002D000ACF1640CA9F15009AAF13C0AABF1280B6E
:1002E000AEF1140E4FF48018B14227D9B9420ED0A6
:1002F000614512D049451DD0514518D0594518D0F7
:10030000714501D1424615E0294EB14201D1012289
:1003100010E0274E1436B14201D110220AE0244EDB
:100320002836B14206D0224A3C32914201D11A46C7
:1003300000E02A461E49091F0A602BE0B94213D08B
:10034000614517D0494522D051451DD059451DD092
:10035000714501D142461AE0B14202D14FF080729C
:1003600015E0134EB14201D1012210E0104E1436B7
:10037000B14201D110220AE00D4E2836B14206D01A
:100380000B4A3C32914201D11A4600E02A46074905
:1003900080394A60012180F82110002180F8201066
:1003A000416B01B188472046BDE8F09F80000240C4
:1003B0000804024070B5044600F010F90546601CC0
:1003C00002D004480078044400F008F9401BA04221
:1003D000FAD370BD140000202DE9F84FDFF8C89162
:1003E000002409F1040A0AF1040B23460F270BF13C
:1003F000040ED1E00125A54006EA0502AA4276D105
:10040000DFF8A8C14E68A6EB0C0866452BD00DDCC2
:10041000032E34D005DC36B3012E19D0022E2FD195
:100420001BE0112E16D0122E2AD119E0B8F5881F24
:1004300019D006DCB8F5803F15D0B8F5801F1FD164
:1004400011E0B8F5001F0ED0B8F5041F18D10AE06E
:10045000CB6815E0CB681B1D12E0CB6808330FE0BA
:10046000CB680C330CE08B682BB1012B4FF00803E9
:1004700003D0456104E0042302E0056100E00023AD
:10048000FF2A01D8064601E000F104064FEA840580
:1004900001D9A5F12005D6F8008007FA05FC28EA65
:1004A0000C0803FA05F548EA0508C6F800804D680F
:1004B000ED0070D53E4DAE6946F00106AE61AD6906
:1004C00024F0030605F0010500953A4D06EB050CF6
:1004D000DCF80850A607360F07FA06F825EA0805E3
:1004E000DFF8D480404503D14FF0000825E052E00A
:1004F000DFF8C880404502D14FF001081DE0DFF869
:10050000C080404502D14FF0020816E0DFF8B48009
:10051000404502D14FF003080FE0DFF8AC804045C2
:1005200002D14FF0040808E0DFF8A080404502D176
:100530004FF0050801E04FF0060808FA06F848EA0F
:100540000508CCF808804D68D9F80060ED034D46E9
:1005500001D5164300E096432E604D68DAF800603E
:10056000AD03554601D5164300E096432E604D6815
:10057000DBF80060ED025D4601D5164300E09643CE
:100580002E604D68DEF80060AD02754601D5164359
:1005900000E096432E60641C0A681646E2407FF431
:1005A00029AFBDE8F88F00000004014000001110E1
:1005B000001002400000014000080140000C014012
:1005C000001001400014014000180140001C0140CF
:1005D0000AB1016170470904FBE700000148806827
:1005E000704700001400002002488168027811441E
:1005F0008160704714000020074810B5016841F081
:1006000010010160032000F075F8002000F006F8EA
:1006100000F024F8002010BD0020024070B50D4D00
:1006200004464FF47A712878B1FBF0F00A49096862
:10063000B1FBF0F000F06FFC48B9102C07D200229B
:100640002146501E00F036F800206C6070BD01207D
:1006500070BD000014000020200000200C4808B5E8
:10066000816941F001018161816901F0010100911D
:10067000C16941F08051C161C06900F080500090B3
:100680000448416821F0E06141F00071416008BD1B
:100690000010024000000140002809DB00F01F02AA
:1006A000012191404009800000F1E020C0F80011D4
:1006B00070470000F0B40E4B1B680C46C3F30223D6
:1006C000C3F10705042D00D90425191D072901D2FE
:1006D000002300E0DB1E012606FA05F1491E214039
:1006E00099409E40761E16403143F0BC00F0D2BFC8
:1006F0000CED00E0064900F0070208684FF6FF0322
:10070000184040EA0220034A104308607047000086
:100710000CED00E00000FA052DE9F0470F4605005A
:1007200061D0434E306800F00700B84209D230680B
:1007300020F0070038433060306800F00700B8420E
:1007400051D128683B4C810712D5400703D560681A
:1007500040F4E06060602878000703D5606840F4EA
:10076000605060606068A96820F0F0000843606035
:100770002878C00728D06868012810D0216802288E
:1007800010D0890700292EDA616821F003010143A6
:100790006160FFF723FF804641F288390DE0216850
:1007A0008903EFE78901EDE7FFF718FFA0EB0801E8
:1007B000494502D90320BDE8F0876068696800F008
:1007C0000C00B0EB810FEFD1306800F00700B842A9
:1007D0000BD9306820F0070038433060306800F0F3
:1007E0000700B84201D00120E5E72878400705D589
:1007F0006068E96820F4E0600843606028780007DA
:1008000006D56068296920F4605040EAC100606044
:1008100000F038F86168084AC1F30311515CC84020
:100820000649086006480068FFF7F8FE0020C2E7A6
:100830000020024000100240342300082000002065
:10084000180000200448054900684968044AC1F3BB
:100850000221515CC8407047200000200010024077
:10086000442300080448054900684968044AC1F364
:10087000C221515CC8407047200000200010024097
:100880004423000812A185B00FC98DE80F0014A001
:10089000144A006804905168134801F00C03042BBB
:1008A00010D0082B0ED1C1F38343C9031DF80300F8
:1008B0000AD5516804AAC1F34041515C0A4A504329
:1008C000B0FBF1F005B0704708494843FAE7000073
:1008D00002030405060708090A0B0C0D0E0F101081
:1008E000010200000010024000127A0000093D00E1
:1008F0002DE9F84F040070D02078C04DC00749D0D2
:100900006868C0F38100012807D06868C0F38100DF
:10091000022809D16868C00306D52868800339D544
:1009200060680028E7D035E06068B0F5803F0BD004
:1009300010B1B0F5A02F11D0286820F480302860C5
:10094000286820F4802002E0286840F48030286085
:10095000606890B1FFF742FE06460AE0286840F45E
:1009600080202860F0E700BFFFF738FE801B642876
:1009700073D828688003F7D50CE0FFF72FFE0646F2
:1009800005E000BFFFF72AFE801B6428F0D8286826
:100990008003F7D420789A4E80074FF001094FF07A
:1009A000000839D5686810F00C0F07D06868C0F3EC
:1009B0008100022809D16868C00306D4286880072E
:1009C00014D52069012808D110E02069B0B1C6F81B
:1009D0000090FFF703FE074605E00AE1FFF7FEFD82
:1009E000C01B0228C4D828688007F7D52868616929
:1009F00020F0F80040EAC10028600DE0C6F8008051
:100A0000FFF7ECFD074604E0FFF7E8FDC01B0228F6
:100A100023D828688007F7D4207800072CD5794898
:100A2000A169D9B1C0F80090FFF7D8FD074604E0EE
:100A3000FFF7D4FDC01B02280FD8686A8007F7D5DE
:100A400071484FF4FA510068B0FBF1F0009000BF1C
:100A50000098411E0091FAD20EE080E0C0F80080BC
:100A6000FFF7BCFD074604E0FFF7B8FDC01B0228F6
:100A700075D8686A8007F7D42078400760D5E869A0
:100A80000027C00008D4E86940F08050E861E869B8
:100A9000012700F0805000905C480168C90513D41C
:100AA0000168834641F480710160FFF797FD82463B
:100AB00006E000BFFFF792FDA0EB0A0064284ED8C5
:100AC000DBF80000C005F5D5E06801280AD008B1C0
:100AD000052813D0286A20F001002862286A20F037
:100AE000040002E0286A40F001002862E06841F258
:100AF000883B98B1FFF772FD82460BE0286A40F010
:100B000004002862EEE700BFFFF768FDA0EB0A01D2
:100B100059455AD8286A8007F6D50CE0FFF75EFDE4
:100B2000824605E0FFF75AFDA0EB0A0159454CD873
:100B3000286A8007F6D41FB1E86920F08050E86188
:100B4000E06988B36968C1F38101022944D00228B1
:100B5000C6F8608004D0FFF741FD044638E034E079
:100B6000FFF73CFD074604E0FFF738FDC01B0228F5
:100B70002BD828688001F7D4206AB0F5803F05D1D2
:100B80006868A16820F4003008436860D4E908016F
:100B90000843696821F4741108436860C6F86090DE
:100BA000FFF71CFD044606E025E000BFFFF716FD39
:100BB000001B022809D828688001F7D51BE000BF78
:100BC000FFF70CFD001B022802D90320BDE8F88FB7
:100BD00028688001F4D40EE00128F7D06868226A02
:100BE00000F48031914204D1616A00F470108842AF
:100BF00001D00120EAE70020E8E7000000100240F1
:100C00000000424280044242200000200070004068
:100C100070B5040009D0606A002540B125616561A6
:100C2000A56294F8510040B10CE0012070BD6068ED
:100C3000B0F5827FF4D0E561F2E784F850502046A9
:100C400000F040F8022084F851002068016821F08B
:100C500040010160A088218900F4827001F4044100
:100C60000843A18901F400610843217C01F00201DD
:100C70000843217D01F001010843218B01F400713B
:100C80000843217F01F03801084394F8201001F057
:100C900080010843218D01F4005108432168086058
:100CA000A069042101EA1040216848602068C169F8
:100CB00021F40061C1616565012084F851000020C4
:100CC00070BD000030B585B00024009401940294FA
:100CD000039400681449884223D11448816941F47F
:100CE00080518161816901F480510491816941F0F1
:100CF0000401816180690E4D00F004000490A02081
:100D00000090022001900320039069462846FFF7D7
:100D100063FB4020CDE90004694628460294FFF7B2
:100D20005BFB05B030BD0000003001400010024008
:100D3000000801402DE9F84F044690F850000027C4
:100D40000A9E1D4692468B464FF0010901280ED09F
:100D5000012084F85000FFF741FC804694F85100D0
:100D6000616801280CD0B1F5827F07D102E0022032
:100D7000BDE8F88FA16809B9042801D00227C2E0B4
:100D8000BBF1000F27D0BAF1000F24D01DB394F8A7
:100D90005100042802D0052084F85100002060652D
:100DA000C4F838A0E587A587C4F830B0E586A586E5
:100DB0002064606420680168490603D4016841F03A
:100DC00040010160E068B0F5006F606805D0E8B3ED
:100DD000012D46D07FE0012795E008B1012D39D1E2
:100DE000206B21680088C860206B801C2063E08E27
:100DF000401EE0862EE02068816889070FD5E18ECD
:100E000069B1B9F1010F0AD1216B0988C160206B6A
:100E1000801C2063E08E401EE0864FF000092068B1
:100E20008168C9070CD0E18F51B1C068A16B0880FF
:100E3000A06B801CA063E08F401EE0874FF001098B
:100E4000FFF7CCFBA0EB0800B04200E009E001D3C3
:100E5000701C50D1E08E0028CDD1E08F0028CAD17F
:100E60003FE0206B216800780873206B401C2063F2
:100E7000E08E401EE0862EE02068816889070FD54D
:100E8000E18E69B1B9F1010F0AD1216B09780173C3
:100E9000206B401C2063E08E401EE0864FF000096E
:100EA00020688168C9070CD0E18F51B1C068A16B7F
:100EB0000870A06B401CA063E08F401EE0874FF0DD
:100EC0000109FFF78BFBA0EB0800B04202D3701CB6
:100ED00001D010E07EB1E08E0028CDD1E08F002857
:100EE000CAD142463146204600F00FFA28B1012708
:100EF0002020606507E0032705E0A06818B9206896
:100F0000C16880680090012084F85100002084F8B6
:100F1000500038462CE710B5401EB0F1807F01D359
:100F2000012010BD4FF0E02460610F21601700F038
:100F3000B1FB0020A06107202061002010BD704798
:100F400070B5026804461068D168536910F00F0F3D
:100F500052D003F0010501F490762E435FD0C20712
:100F600005D0CA0503D5E26B42F00102E2634207F5
:100F700005D5DA0703D0E26B42F00202E263820792
:100F800005D5DA0703D0E26B42F00402E263020700
:100F900007D501F020022A4303D0E26B42F0080299
:100FA000E263E26B002A33D0800604D5880602D5BE
:100FB000204600F07EFA20684069E16BC0F38010A3
:100FC000090700D428B3204600F065FA206841697B
:100FD00049061AD5416921F040014161606BA0B119
:100FE0002D494163606BFFF74DF9002810D0606B0D
:100FF000416BBDE870400847830610D58B060ED5BF
:101000002046BDE8704000F054BA2046FFF797FF35
:1010100070BD2046FFF793FF0020E06370BD03061C
:101020002BD50B0629D594F839002128F6D1A068D4
:10103000B0F5805F01D12069B0B1206A411C216206
:10104000216800784860E08C401E0004000CE084B9
:10105000E4D12068C16821F08001C1602068C168C6
:1010600041F04001C16070BD206A0088C0F30800F3
:101070005060206A801C2062E5E74006F3D54806F0
:10108000F1D5D168204621F04001D160202184F8BB
:10109000391000F0D0F870BD8714000870B5040056
:1010A00004D094F83900002510B106E0012070BD8D
:1010B00084F83850204600F023F8242084F83900C2
:1010C0002068C16821F40051C160204600F038FA60
:1010D0002068016921F4904101612068416921F093
:1010E0002A0141612068C16841F40051C160E56393
:1010F000202084F8390084F83A00002070BD0000F8
:1011000030B585B0002400940194029403940068E3
:10111000184988422CD11848816941F48041816185
:10112000816901F480410491816941F00401816188
:101130008069124D00F0040004904FF4007000909C
:10114000022001900320039069462846FFF744F9E6
:101150002815CDE90004694628460294FFF73CF9BA
:10116000002211462520FFF7A5FA2520FFF794FA63
:1011700005B030BD003801400010024000080140B9
:10118000704700002DE9F843044690F839001F46E7
:1011900016460D4620284CD1C5B1BEB194F8380092
:1011A000012846D0012084F838004FF00008C4F828
:1011B0003C80212084F83900FFF710FAA68481468C
:1011C000E684A068B0F5805F03D004E00120BDE8AC
:1011D000F883206928B12E465FF0000584F8388036
:1011E0000EE00026FAE78021204600F005FAA0B9BB
:1011F000AEB116F8010B21684860E08C401EE08417
:10120000E08C4B464FF0000200970028EBD14FF0E6
:101210004001204600F0F0F930B10320D7E735F85F
:10122000020BC0F30800E6E7202084F83900002014
:10123000CDE70220CBE77047FEE7000070B586B02F
:1012400000241D480094019402940394816941F0A4
:1012500010018161816901F010010491816941F0FF
:1012600020018161816901F020010491816941F0CF
:10127000040181618069114E00F004000490002295
:1012800042F210013046FFF7A3F901257014CDE9B1
:10129000000569463046CDE90245FFF79DF810206C
:1012A000CDE900050220CDE9024069463046FFF74E
:1012B00093F806B070BD000000100240001001401D
:1012C0000F4810B50D4901604FF482714160002153
:1012D0008160C1604FF400720161C0E9051208220B
:1012E000C0E90721416281620A21C162FFF790FCD7
:1012F000002801D072B6FEE710BD000000300140AA
:1013000060020020FEE7FEE7704738B50B4600920A
:1013100004460022802100F00BF8002804D0606D04
:1013200040F020006065032038BDFF2000F05CB86D
:101330002DE9F8431E46914688460446089DFFF76E
:101340004DF9401B351AFFF749F907462548006853
:10135000C0F3CB30684338E0701C37D0FFF73EF95C
:10136000C01BA84203D215B1009860B32CE02068DE
:10137000416821F0E00141606068B0F5827F0BD1E7
:10138000A068B0F5004F02D0B0F5806F04D120689E
:10139000016821F040010160A06AB0F5005F09D149
:1013A0002068016821F4005101602068016841F45F
:1013B00000510160012084F85100002084F85000A1
:1013C0000320BDE8F8830025401E00902068816856
:1013D00038EA010004D000214945BDD10020F0E7E2
:1013E0000121F9E72000002001B582B000208DF82E
:1013F00004004FF480500090012301AA02A906487E
:10140000FFF798FC20B1012251030448FFF7E0F8F0
:101410009DF804000EBD0000600200200010014095
:101420007047FFF7E1B830B58FB028216846FEF766
:10143000B4FE14210AA8FEF7B0FE01210804CDE98C
:1014400000100024029402250491CDE907504FF4C6
:10145000402009906846FFF74BFA08B172B6FEE7E4
:101460000F20CDE90A054FF48060CDE90C40012141
:101470000AA80E94FFF750F9002801D072B6FEE7D3
:101480000FB030BD704710B5406A0021C185C184DE
:10149000FFF755FD10BD0168CA6822F49072CA605A
:1014A00001684A6922F001024A61202180F83A105D
:1014B000704710B590F83A10222901D0022010BDD3
:1014C00082684FF480539A4201D1016921B1816A47
:1014D0009A421BD04AB10AE00268816A5268C2F39C
:1014E00008020A80816A891C08E0026972B10268F8
:1014F000526802F07F020A70816A491C8162C18DC4
:10150000491E0904090CC18503D016E0026852681F
:10151000F1E70168CA6822F02002CA600168CA685F
:1015200022F48072CA6001684A6922F001024A61AD
:10153000202180F83A10FFF723FE002010BD0000A4
:1015400070B5044600680169E26821F44051114316
:1015500001612169A0680843616908432168CA687C
:1015600041F20C639A430243CA6020684169A26950
:1015700021F44071114341611E492068884202D123
:10158000FFF770F901E0FFF75DF900EBC00101EB37
:101590000012606864218000B2FBF0F3B3FBF1F34A
:1015A0006FF018067343B2FBF0F5B2FBF0F605EBF3
:1015B0008305322303EB0515B5FBF1F5B6FBF1F618
:1015C00005F0F00505EB0615B2FBF0F6B2FBF0F006
:1015D000B0FBF1F06FF01802504306EB800003EB14
:1015E0000010B0FBF1F0216800F00F002844886083
:1015F00070BD0000003801402DE9F04198461746C3
:101600000E460446069D1DE0681C1BD02DB1FEF75A
:10161000E5FFA0EB0800A84214D92068C16821F4B6
:10162000D071C1602068416921F001014161202031
:1016300084F8390084F83A00002084F83800032048
:10164000BDE8F0812068006836EA000004D0002080
:10165000B842D9D00020F3E70120F9E70148FFF7AD
:101660006FBC0000B8020020FEE700000FB4084B7A
:1016700010B504A902AA039800F02CF8044602A9A8
:10168000002000F052FA204610BC5DF814FB000068
:101690002B1B00080907090E002804DB00F1E020DD
:1016A00080F80014704700F00F0000F1E02080F88F
:1016B000141D704702E008C8121F08C1002AFAD1A1
:1016C00070477047002001E001C1121F002AFBD1C2
:1016D000704700002DE9FF4F8DB00F4605460026EC
:1016E00006E025280BD0DDE90F1290476D1C761C13
:1016F00028780028F5D111B03046BDE8F08F0024DD
:10170000A246A1460122E94900E0044315F8013F41
:10171000203B02FA03F00842F7D128782A2810D09B
:101720006FF02F022878A0F13001092914D80AEBB4
:101730008A0102EB410144F0020400EB010A6D1C36
:10174000F0E701CF5FEA000A03D544F40054CAF180
:10175000000A44F002046D1C28782E2817D115F8D1
:10176000010F44F004042A280ED06FF02F022878CD
:10177000A0F1300109290AD809EB890102EB4101E6
:1017800000EB01096D1CF2E757F8049B6D1C2878EB
:101790006C280FD006DC4C2817D068280DD06A289A
:1017A00014D104E0742810D07A280FD10DE044F44D
:1017B00000140AE044F4801401E044F44014697811
:1017C000814202D104F580146D1C6D1C28786E28AE
:1017D0001ED00CDC632830D004DC00288BD05828C5
:1017E00011D19FE0642867D069280CD164E0732888
:1017F0002DD004DC6F2872D0702804D194E07528B5
:101800006ED078286DD0DDE90F129047761C4BE141
:10181000C4F30250022806D0032809D0042801CFBF
:1018200009D0066040E101CFF117C0E900613BE15A
:1018300001CF068038E1067036E117F8040B8DF809
:10184000000000208DF80100EB46012003E057F86E
:1018500004BB4FF0FF3061074FF0000102D40DE0F0
:1018600008F10101884649450FDA8045F8DB1BF88D
:1018700008100029F4D108E008F1010188468142EE
:10188000FADB1BF808100029F6D1DDE90F23AAEBDB
:1018900008008146214600F031F9304400EB08068B
:1018A00004E0DDE90F121BF8010B9047B8F10108C5
:1018B000F7D221464846F2E00A21C4F302524FF023
:1018C000000B0891022A04D001CFC117032A09D0C6
:1018D0000AE0FF1D27F00707F7E8020108E02CE007
:1018E0001EE01FE000B2C117042A01D140B2C117A7
:1018F000021E71F1000206DA0023D0EB030063EB55
:1019000001012D2202E0220504D52B228DF824208E
:10191000012203E0E20701D02022F7E7904653E0DE
:101920000A210BE0102109E010214FF0000B44F0D8
:1019300004044FF00809089103E008214FF0000B60
:101940000891C4F30252022A04D001CF0021032AD5
:1019500006D006E0FF1D27F00707F7E8020103E0C5
:1019600080B2042A00D1C0B24FF0000822072BD564
:101970002A78702A07D0DDF820C08CF0100C5CEAC1
:101980000B0C05D00EE040228DF82420012208E047
:1019900050EA010306D030238DF824308DF825203D
:1019A00002229046089B83F0080353EA0B030BD1F5
:1019B00050EA010201D1620706D530228DF82420B9
:1019C0004FF00108A9F101092A78582A04D038A259
:1019D0000B9208AA0A920BE03AA2F9E75B46089A32
:1019E000FEF7FAFB0B9B9B5C0A9A521E0A9213703D
:1019F00050EA0102F2D10A98ADEB000000F1200B91
:101A0000600702D524F4803401E04FF00109D94584
:101A100002DDA9EB0B0000E0002000EB0B014144CC
:101A20000890AAEB010AE00306D4DDE90F23214662
:101A3000504600F063F806444FF0000908E009A999
:101A400011F80900DDE90F12904709F10109761C30
:101A5000C145F4DBE0030CD5DDE90F2321465046F8
:101A600000F04CF8064404E0DDE90F123020904706
:101A7000761C0899481E08900029F5DC08E00A98B1
:101A80000A990078491C0A91DDE90F129047761CEB
:101A9000BBF10001ABF1010BF1DC21465046DDE961
:101AA0000F2300F019F806446D1C21E609280100F7
:101AB00030313233343536373839616263646566C4
:101AC0000000000030313233343536373839414286
:101AD00043444546000000002DE9F041044600253E
:101AE0001E461746880404D405E039462020B04736
:101AF0006D1C641EF9D52846BDE8F0812DE9F04142
:101B0000044600251E469046C80301D5302700E054
:101B10002027880404D505E041463846B0476D1CAF
:101B2000641EF9D52846BDE8F0810A68531C0B6095
:101B3000107070477FB50E30002504461C2966D30F
:101B400021884FF48070814260D1618808295DD17D
:101B5000E18881425AD104222E4904F11800FEF78F
:101B60002EFB002852D1A07A637B227BE17A8DE89C
:101B70000F00637A227A28A13448FFF777FD3348B3
:101B8000FEF716FB82B24FF480552B462F493048A2
:101B9000FFF7F8FA617C207CCDE90001E37BA27BB2
:101BA0002CA12A48FFF762FD2848FEF701FB82B20C
:101BB0002B4626492648FFF7E5FA207DE37DA27DE6
:101BC000617D8DE80F00E37CA27C28A11F48FFF710
:101BD0004DFD1E48FEF7ECFA82B22B461B491C480D
:101BE000FFF7D0FAE17EA07ECDE90001637E227E80
:101BF00029A11648FFF73AFD1448FEF7D9FA82B238
:101C00002B4612491248FFF7BDFA0125284604B0B9
:101C100070BD000000000020726571756573740D61
:101C20000A6D61635F73726320253032583A253044
:101C300032583A253032583A253032583A25303227
:101C4000583A253032580D0A0000000024000020C8
:101C5000B802002069705F7372632025642E2564CA
:101C60002E25642E25640D0A000000006E6D616350
:101C70005F64737420253032583A253032583A2543
:101C80003032583A253032583A253032583A2530D9
:101C900032580D0A0000000069705F6473742025DB
:101CA000642E25642E25642E25640D0A0000000094
:101CB0004FF400728282D0F816200262428B828436
:101CC000074A1C211368C0F8163092884283C26903
:101CD000C0F82620034A1268C26100F06BBA000007
:101CE0000C00002000000020002205E030F8023B3C
:101CF000891E5BBA1A4489B20129F7D831B100783C
:101D000002EB002202E090B200EB1242100CFAD17A
:101D100050BAC04380B2704770B50A4D00F06004FD
:101D2000287884420CD003221F21A02000F084F9DF
:101D300062092C70BDE870401F21802000F07CB942
:101D400070BD00000400002038B50122474D540347
:101D500021462846FEF73CFC002221462846FEF795
:101D600037FCFF220021104600F066F90220FEF742
:101D700021FB1D21002000F017F90028F9D00021D7
:101D8000082000F085F900210C2000F081F940F6D0
:101D9000FF310A2000F07CF94FF44061042000F08C
:101DA00077F941F2FF11062000F072F9382000F0B7
:101DB0001DF940F00101382000F077F90D21C02015
:101DC00000F073F90021C12000F06FF93222C22126
:101DD000802000F031F940F61241C62000F058F999
:101DE0001221C42000F061F940F2DC51CA2000F059
:101DF0004FF91F4CE420217800F057F96178E52075
:101E000000F053F9A178E22000F04FF9E178E320E7
:101E100000F04BF92179E02000F047F96179E120E9
:101E200000F043F94FF48071102000F021F940F2E6
:101E30007641142000F01CF91F20FFF76DFF0422EB
:101E40001F21802000F0F8F80221752000F02DF904
:101E5000084809490068B0FBF1F0C0EB00100090A1
:101E6000411E009101D30846FAE738BD0010014039
:101E70000C00002020000020404B4C002DE9FC41CC
:101E800007460E460024392000F0B0F880B31A4D02
:101E9000A88881B2002000F0FBF86946062000F017
:101EA00065F8BDF800006860BDF80200001F84B24C
:101EB000B44200D93446BDF80400000601D4002421
:101EC00003E03946204600F051F800203855686894
:101ED000401EB0F5406F02DB40F6FF3100E081B2FA
:101EE0000C2000F0D5F840221E21802000F0A4F83C
:101EF0002046BDE8FC8100000400002070B50C46BF
:101F000005460EE01C2000F071F8800709D58022FC
:101F10001F21104600F090F880221F21A02000F021
:101F20008BF81F21002000F03FF80007EAD44FF49F
:101F30004061022000F0ACF804F5406081B2062058
:101F400000F0A6F808A1012000F05AF82946204622
:101F500000F056F808221F21802000F06DF8BDE83F
:101F600070400120FEF726BA7830300070B50D4E73
:101F70000C460546002210213046FEF729FB3A2088
:101F8000FFF732FA04E00020FFF72EFA04F8010B05
:101F90006D1EADB2F7D23046BDE87040012210216F
:101FA000FEF716BB0010014070B50F4E0C460546FB
:101FB000002210213046FEF70BFB04F01F002843DF
:101FC000FFF712FA0020FFF70FFA200602D5FF20D4
:101FD000FFF70AFAFFF7A9F904460122102130465B
:101FE000FEF7F6FA204670BD0010014010B5044619
:101FF000FFF792FE2146BDE810400020FFF7D4BF56
:1020000070B50C4E0C460546002210213046FEF7F6
:10201000DFFA7A2002E000BF14F8010BFFF7E4F9C1
:102020006D1EADB2F8D23046BDE8704001221021DD
:10203000FEF7CEBA001001402DE9F0410B4E1446D8
:102040000D460746002210213046FEF7C1FA05F082
:102050001F003843FFF7C8F92046FFF7C5F930469F
:10206000BDE8F04101221021FEF7B2BA0010014094
:1020700010B50C460146D42000F017F82146D620B2
:1020800000F006F8EA20FFF7B1FFC007FAD110BD53
:1020900070B50D460446C9B200F007F8290A641C61
:1020A000E0B2BDE87040AFF3008070B50C46054665
:1020B000FFF732FE22462946BDE870404020FFF778
:1020C000BBBF000070B58CB00D4604460E2966D328
:1020D000A0894FF48056B0F5C16F2CD008285ED18E
:1020E00020796179E278CDE90720CDE90915E07A18
:1020F0000DF10C0CA378627821788CE80F00207A1F
:10210000A27A617A8DE80700E379A2792549264809
:10211000FFF7ACFA2448FEF74BF882B23346224967
:102120002248FFF72FF8143D0CB0A9B22046BDE8B5
:10213000704000F087B821796079E278CDE9072115
:10214000CDE90905E07A0DF10C0CA37862782178CD
:102150008CE80F00207AA27A617A8DE80700E37993
:10216000A27913491048FFF781FA0F48FEF720F8CB
:1021700082B233460C490D48FFF704F80E3DA9B270
:102180002046FFF7D7FCA9B22046FFF7D3FC002872
:1021900005D00CB02046BDE87040FFF789BD0CB0FB
:1021A00070BD00004C23000824000020B80200206D
:1021B00094230008D0F80620026042898280054AF4
:1021C0000E3189B21368C0F8063092884281FFF759
:1021D00095BE00000C0000202DE9F04100270E46BE
:1021E000054600F1220408291DD3207808281AD1B9
:1021F0000EA11248FFF73AFA1048FDF7D9FF82B254
:102200004FF480530D490E48FEF7BCFF00202070AC
:10221000608031462046FFF767FD60801436B1B21A
:10222000284600F02DF83846BDE8F08169636D70EE
:1022300020726571756573740D0A0000240000201A
:10224000B802002070B5054600F10E04807B002620
:10225000452810D10422094904F11000FDF7AFFF11
:1022600048B9608840BA143881B2607A012802D136
:102270002846FFF7B1FF304670BD00000000002087
:102280002DE9F041054600F10E0448BA60800027B0
:10229000E780802020726781E068206107480E4651
:1022A00014210068E0602046FFF71EFD6081314682
:1022B0002846FFF77FFF3846BDE8F0810000002088
:1022C000FEF79AF9FFF7AFF8FEF7B8FFFEF7F8FF51
:1022D0000D480C490C2201604FF46131416000212E
:1022E0008160C160C0E904128161C161FEF7D6FE60
:1022F00008B172B6FEE700F009F800BF00F008F878
:10230000FCE7000000380140B8020020FFF71CBDC8
:1023100070B5074C4FF4007502E02046FFF7D2FE7F
:1023200029460348FFF7AAFD0100F6D170BD000061
:102330006000002000000000000000000102030413
:102340000607080900000000010203042530325886
:102350003A253032583A253032583A253032583AF8
:10236000253032583A253032582D253032583A250A
:102370003032583A253032583A253032583A2530E2
:1023800032583A253032583B2025643B2069700D85
:102390000A000000253032583A253032583A2530AC
:1023A00032583A253032583A253032583A253032B0
:1023B000582D253032583A253032583A2530325887
:1023C0003A253032583A253032583A253032583B87
:1023D0002025643B206172700D0A0000FC23000878
:1023E0000000002024000000B4160008202400088B
:1023F00024000020D4060000C4160008C0A8E95B31
:102400000000000000000000001542BFF051000075
:102410000100000010000000000000000024F40093
:0400000508000131BD
:00000001FF
